{"abi":[{"type":"constructor","inputs":[],"stateMutability":"nonpayable"},{"type":"function","name":"DISPUTE_GRACE_PERIOD","inputs":[],"outputs":[{"name":"","type":"uint256","internalType":"uint256"}],"stateMutability":"view"},{"type":"function","name":"FEE_DENOMINATOR","inputs":[],"outputs":[{"name":"","type":"uint256","internalType":"uint256"}],"stateMutability":"view"},{"type":"function","name":"MAX_DEADLINE","inputs":[],"outputs":[{"name":"","type":"uint256","internalType":"uint256"}],"stateMutability":"view"},{"type":"function","name":"allowedTokens","inputs":[{"name":"","type":"address","internalType":"address"}],"outputs":[{"name":"","type":"bool","internalType":"bool"}],"stateMutability":"view"},{"type":"function","name":"canRefund","inputs":[{"name":"_escrowId","type":"uint256","internalType":"uint256"}],"outputs":[{"name":"","type":"bool","internalType":"bool"}],"stateMutability":"view"},{"type":"function","name":"collectedFees","inputs":[{"name":"","type":"address","internalType":"address"}],"outputs":[{"name":"","type":"uint256","internalType":"uint256"}],"stateMutability":"view"},{"type":"function","name":"completeMilestone","inputs":[{"name":"_escrowId","type":"uint256","internalType":"uint256"},{"name":"_milestoneId","type":"uint256","internalType":"uint256"}],"outputs":[],"stateMutability":"nonpayable"},{"type":"function","name":"createEscrow","inputs":[{"name":"_contractId","type":"uint256","internalType":"uint256"},{"name":"_beneficiary","type":"address","internalType":"address"},{"name":"_token","type":"address","internalType":"address"},{"name":"_totalAmount","type":"uint256","internalType":"uint256"},{"name":"_deadline","type":"uint256","internalType":"uint256"},{"name":"_jobHash","type":"bytes32","internalType":"bytes32"}],"outputs":[{"name":"","type":"uint256","internalType":"uint256"}],"stateMutability":"nonpayable"},{"type":"function","name":"createMilestone","inputs":[{"name":"_escrowId","type":"uint256","internalType":"uint256"},{"name":"_description","type":"string","internalType":"string"},{"name":"_amount","type":"uint256","internalType":"uint256"}],"outputs":[],"stateMutability":"nonpayable"},{"type":"function","name":"depositFunds","inputs":[{"name":"_escrowId","type":"uint256","internalType":"uint256"}],"outputs":[],"stateMutability":"nonpayable"},{"type":"function","name":"escrowCounter","inputs":[],"outputs":[{"name":"","type":"uint256","internalType":"uint256"}],"stateMutability":"view"},{"type":"function","name":"escrowMilestones","inputs":[{"name":"","type":"uint256","internalType":"uint256"},{"name":"","type":"uint256","internalType":"uint256"}],"outputs":[{"name":"milestoneId","type":"uint256","internalType":"uint256"},{"name":"description","type":"string","internalType":"string"},{"name":"amount","type":"uint256","internalType":"uint256"},{"name":"completed","type":"bool","internalType":"bool"},{"name":"paid","type":"bool","internalType":"bool"},{"name":"completedAt","type":"uint256","internalType":"uint256"},{"name":"paidAt","type":"uint256","internalType":"uint256"}],"stateMutability":"view"},{"type":"function","name":"escrows","inputs":[{"name":"","type":"uint256","internalType":"uint256"}],"outputs":[{"name":"contractId","type":"uint256","internalType":"uint256"},{"name":"depositor","type":"address","internalType":"address"},{"name":"beneficiary","type":"address","internalType":"address"},{"name":"token","type":"address","internalType":"address"},{"name":"totalAmount","type":"uint256","internalType":"uint256"},{"name":"releasedAmount","type":"uint256","internalType":"uint256"},{"name":"refundedAmount","type":"uint256","internalType":"uint256"},{"name":"status","type":"uint8","internalType":"enum FreelanceEscrow.EscrowStatus"},{"name":"createdAt","type":"uint256","internalType":"uint256"},{"name":"fundedAt","type":"uint256","internalType":"uint256"},{"name":"deadline","type":"uint256","internalType":"uint256"},{"name":"jobHash","type":"bytes32","internalType":"bytes32"},{"name":"disputed","type":"bool","internalType":"bool"},{"name":"disputeReason","type":"string","internalType":"string"}],"stateMutability":"view"},{"type":"function","name":"getEscrow","inputs":[{"name":"_escrowId","type":"uint256","internalType":"uint256"}],"outputs":[{"name":"","type":"tuple","internalType":"struct FreelanceEscrow.EscrowContract","components":[{"name":"contractId","type":"uint256","internalType":"uint256"},{"name":"depositor","type":"address","internalType":"address"},{"name":"beneficiary","type":"address","internalType":"address"},{"name":"token","type":"address","internalType":"address"},{"name":"totalAmount","type":"uint256","internalType":"uint256"},{"name":"releasedAmount","type":"uint256","internalType":"uint256"},{"name":"refundedAmount","type":"uint256","internalType":"uint256"},{"name":"status","type":"uint8","internalType":"enum FreelanceEscrow.EscrowStatus"},{"name":"createdAt","type":"uint256","internalType":"uint256"},{"name":"fundedAt","type":"uint256","internalType":"uint256"},{"name":"deadline","type":"uint256","internalType":"uint256"},{"name":"jobHash","type":"bytes32","internalType":"bytes32"},{"name":"disputed","type":"bool","internalType":"bool"},{"name":"disputeReason","type":"string","internalType":"string"}]}],"stateMutability":"view"},{"type":"function","name":"getMilestones","inputs":[{"name":"_escrowId","type":"uint256","internalType":"uint256"}],"outputs":[{"name":"","type":"tuple[]","internalType":"struct FreelanceEscrow.Milestone[]","components":[{"name":"milestoneId","type":"uint256","internalType":"uint256"},{"name":"description","type":"string","internalType":"string"},{"name":"amount","type":"uint256","internalType":"uint256"},{"name":"completed","type":"bool","internalType":"bool"},{"name":"paid","type":"bool","internalType":"bool"},{"name":"completedAt","type":"uint256","internalType":"uint256"},{"name":"paidAt","type":"uint256","internalType":"uint256"}]}],"stateMutability":"view"},{"type":"function","name":"getRemainingBalance","inputs":[{"name":"_escrowId","type":"uint256","internalType":"uint256"}],"outputs":[{"name":"","type":"uint256","internalType":"uint256"}],"stateMutability":"view"},{"type":"function","name":"getUserEscrows","inputs":[{"name":"_user","type":"address","internalType":"address"},{"name":"_offset","type":"uint256","internalType":"uint256"},{"name":"_limit","type":"uint256","internalType":"uint256"}],"outputs":[{"name":"","type":"uint256[]","internalType":"uint256[]"}],"stateMutability":"view"},{"type":"function","name":"minEscrowAmount","inputs":[],"outputs":[{"name":"","type":"uint256","internalType":"uint256"}],"stateMutability":"view"},{"type":"function","name":"owner","inputs":[],"outputs":[{"name":"","type":"address","internalType":"address"}],"stateMutability":"view"},{"type":"function","name":"pause","inputs":[],"outputs":[],"stateMutability":"nonpayable"},{"type":"function","name":"paused","inputs":[],"outputs":[{"name":"","type":"bool","internalType":"bool"}],"stateMutability":"view"},{"type":"function","name":"platformFeeRate","inputs":[],"outputs":[{"name":"","type":"uint256","internalType":"uint256"}],"stateMutability":"view"},{"type":"function","name":"raiseDispute","inputs":[{"name":"_escrowId","type":"uint256","internalType":"uint256"},{"name":"_reason","type":"string","internalType":"string"}],"outputs":[],"stateMutability":"nonpayable"},{"type":"function","name":"refundDepositor","inputs":[{"name":"_escrowId","type":"uint256","internalType":"uint256"}],"outputs":[],"stateMutability":"nonpayable"},{"type":"function","name":"releaseFunds","inputs":[{"name":"_escrowId","type":"uint256","internalType":"uint256"},{"name":"_amount","type":"uint256","internalType":"uint256"}],"outputs":[],"stateMutability":"nonpayable"},{"type":"function","name":"releaseMilestonePayment","inputs":[{"name":"_escrowId","type":"uint256","internalType":"uint256"},{"name":"_milestoneId","type":"uint256","internalType":"uint256"}],"outputs":[],"stateMutability":"nonpayable"},{"type":"function","name":"renounceOwnership","inputs":[],"outputs":[],"stateMutability":"nonpayable"},{"type":"function","name":"resolveDispute","inputs":[{"name":"_escrowId","type":"uint256","internalType":"uint256"},{"name":"_outcome","type":"uint8","internalType":"enum FreelanceEscrow.DisputeOutcome"}],"outputs":[],"stateMutability":"nonpayable"},{"type":"function","name":"setMinEscrowAmount","inputs":[{"name":"_newMinAmount","type":"uint256","internalType":"uint256"}],"outputs":[],"stateMutability":"nonpayable"},{"type":"function","name":"setPlatformFeeRate","inputs":[{"name":"_newFeeRate","type":"uint256","internalType":"uint256"}],"outputs":[],"stateMutability":"nonpayable"},{"type":"function","name":"setTokenWhitelist","inputs":[{"name":"_token","type":"address","internalType":"address"},{"name":"_status","type":"bool","internalType":"bool"}],"outputs":[],"stateMutability":"nonpayable"},{"type":"function","name":"transferOwnership","inputs":[{"name":"newOwner","type":"address","internalType":"address"}],"outputs":[],"stateMutability":"nonpayable"},{"type":"function","name":"unpause","inputs":[],"outputs":[],"stateMutability":"nonpayable"},{"type":"function","name":"userEscrows","inputs":[{"name":"","type":"address","internalType":"address"},{"name":"","type":"uint256","internalType":"uint256"}],"outputs":[{"name":"","type":"uint256","internalType":"uint256"}],"stateMutability":"view"},{"type":"function","name":"withdrawPlatformFee","inputs":[{"name":"_token","type":"address","internalType":"address"}],"outputs":[],"stateMutability":"nonpayable"},{"type":"event","name":"DisputeRaised","inputs":[{"name":"escrowId","type":"uint256","indexed":true,"internalType":"uint256"},{"name":"initiator","type":"address","indexed":true,"internalType":"address"},{"name":"reason","type":"string","indexed":false,"internalType":"string"},{"name":"timestamp","type":"uint256","indexed":false,"internalType":"uint256"}],"anonymous":false},{"type":"event","name":"DisputeResolved","inputs":[{"name":"escrowId","type":"uint256","indexed":true,"internalType":"uint256"},{"name":"outcome","type":"uint8","indexed":false,"internalType":"enum FreelanceEscrow.DisputeOutcome"},{"name":"timestamp","type":"uint256","indexed":false,"internalType":"uint256"}],"anonymous":false},{"type":"event","name":"EscrowCreated","inputs":[{"name":"escrowId","type":"uint256","indexed":true,"internalType":"uint256"},{"name":"contractId","type":"uint256","indexed":true,"internalType":"uint256"},{"name":"depositor","type":"address","indexed":true,"internalType":"address"},{"name":"beneficiary","type":"address","indexed":false,"internalType":"address"},{"name":"token","type":"address","indexed":false,"internalType":"address"},{"name":"totalAmount","type":"uint256","indexed":false,"internalType":"uint256"},{"name":"deadline","type":"uint256","indexed":false,"internalType":"uint256"}],"anonymous":false},{"type":"event","name":"EscrowFunded","inputs":[{"name":"escrowId","type":"uint256","indexed":true,"internalType":"uint256"},{"name":"amount","type":"uint256","indexed":false,"internalType":"uint256"},{"name":"timestamp","type":"uint256","indexed":false,"internalType":"uint256"}],"anonymous":false},{"type":"event","name":"FundsRefunded","inputs":[{"name":"escrowId","type":"uint256","indexed":true,"internalType":"uint256"},{"name":"amount","type":"uint256","indexed":false,"internalType":"uint256"},{"name":"depositor","type":"address","indexed":true,"internalType":"address"},{"name":"timestamp","type":"uint256","indexed":false,"internalType":"uint256"}],"anonymous":false},{"type":"event","name":"FundsReleased","inputs":[{"name":"escrowId","type":"uint256","indexed":true,"internalType":"uint256"},{"name":"amount","type":"uint256","indexed":false,"internalType":"uint256"},{"name":"beneficiary","type":"address","indexed":true,"internalType":"address"},{"name":"platformFee","type":"uint256","indexed":false,"internalType":"uint256"},{"name":"timestamp","type":"uint256","indexed":false,"internalType":"uint256"}],"anonymous":false},{"type":"event","name":"MilestoneCompleted","inputs":[{"name":"escrowId","type":"uint256","indexed":true,"internalType":"uint256"},{"name":"milestoneId","type":"uint256","indexed":true,"internalType":"uint256"},{"name":"timestamp","type":"uint256","indexed":false,"internalType":"uint256"}],"anonymous":false},{"type":"event","name":"MilestoneCreated","inputs":[{"name":"escrowId","type":"uint256","indexed":true,"internalType":"uint256"},{"name":"milestoneId","type":"uint256","indexed":true,"internalType":"uint256"},{"name":"description","type":"string","indexed":false,"internalType":"string"},{"name":"amount","type":"uint256","indexed":false,"internalType":"uint256"}],"anonymous":false},{"type":"event","name":"OwnershipTransferred","inputs":[{"name":"previousOwner","type":"address","indexed":true,"internalType":"address"},{"name":"newOwner","type":"address","indexed":true,"internalType":"address"}],"anonymous":false},{"type":"event","name":"Paused","inputs":[{"name":"account","type":"address","indexed":false,"internalType":"address"}],"anonymous":false},{"type":"event","name":"PlatformFeeUpdated","inputs":[{"name":"oldFee","type":"uint256","indexed":false,"internalType":"uint256"},{"name":"newFee","type":"uint256","indexed":false,"internalType":"uint256"}],"anonymous":false},{"type":"event","name":"PlatformFeeWithdrawn","inputs":[{"name":"token","type":"address","indexed":true,"internalType":"address"},{"name":"amount","type":"uint256","indexed":false,"internalType":"uint256"}],"anonymous":false},{"type":"event","name":"TokenWhitelisted","inputs":[{"name":"token","type":"address","indexed":true,"internalType":"address"},{"name":"status","type":"bool","indexed":false,"internalType":"bool"}],"anonymous":false},{"type":"event","name":"Unpaused","inputs":[{"name":"account","type":"address","indexed":false,"internalType":"address"}],"anonymous":false}],"bytecode":{"object":"0x608060405260fa600455629896806005553480156200001d57600080fd5b50620000293362000042565b600180556002805460ff19169055600060035562000092565b600080546001600160a01b038381166001600160a01b0319831681178455604051919092169283917f8be0079c531659141344cd1fd0a4f28419497f9722a3daafe3b4186f6b6457e09190a35050565b61386280620000a26000396000f3fe608060405234801561001057600080fd5b50600436106102115760003560e01c80638456cb5911610125578063da13b0d3116100ad578063e744092e1161007c578063e744092e14610484578063eeca08f0146104a7578063f2fde38b146104b0578063f326206b146104c3578063fc8cc92b146104d657600080fd5b8063da13b0d31461042b578063df7843ae1461043e578063e44774fa14610451578063e55e42111461047157600080fd5b8063c029d0a8116100f4578063c029d0a8146103e0578063c5176941146103f3578063c7ceafea14610406578063c9bcc97e1461040f578063d73792a91461042257600080fd5b80638456cb59146103975780638c936e651461039f5780638da5cb5b146103b2578063927fef2e146103cd57600080fd5b80634a690345116101a85780636f0e530f116101775780636f0e530f1461033f578063715018a61461034957806378e94dd2146103515780637d19e596146103645780637f944dd01461038457600080fd5b80634a690345146102f95780635aef573c146103025780635c975abb146103155780635ee1ea6f1461032c57600080fd5b80633b09dba6116101e45780633b09dba6146102b55780633b76594d146102be5780633f4ba83a146102d157806342c549c0146102d957600080fd5b8063012f52ee1461021657806311632e4e1461024c5780631cead9a7146102725780632df5c286146102a0575b600080fd5b610229610224366004612eb5565b6104e9565b6040516102439e9d9c9b9a99989796959493929190612f48565b60405180910390f35b61025f61025a366004612fe2565b6105f8565b6040516102439796959493929190613004565b610292610280366004613063565b600a6020526000908152604090205481565b604051908152602001610243565b6102b36102ae366004612eb5565b6106e8565b005b61029260055481565b6102b36102cc366004612eb5565b6106f5565b6102b36108a8565b6102ec6102e7366004612eb5565b6108ba565b604051610243919061307e565b61029261c4e081565b6102b3610310366004613174565b610a25565b60025460ff165b6040519015158152602001610243565b6102b361033a366004612eb5565b610c70565b6102926213c68081565b6102b3610eeb565b61029261035f366004612eb5565b610efd565b610377610372366004612eb5565b610f5c565b60405161024391906131c0565b6102926103923660046132a7565b61116c565b6102b361119d565b6102b36103ad366004612fe2565b6111ad565b6000546040516001600160a01b039091168152602001610243565b6102b36103db366004612eb5565b6113d3565b6102926103ee3660046132d1565b61146b565b6102b3610401366004613063565b6118e3565b61029260035481565b6102b361041d366004613337565b6119de565b61029261271081565b6102b361043936600461336e565b611a93565b6102b361044c366004612fe2565b611e3f565b61046461045f3660046133c1565b611f18565b60405161024391906133f4565b6102b361047f366004613438565b612072565b61031c610492366004613063565b60096020526000908152604090205460ff1681565b61029260045481565b6102b36104be366004613063565b612475565b6102b36104d1366004612fe2565b6124eb565b61031c6104e4366004612eb5565b6126ed565b600660208190526000918252604090912080546001820154600283015460038401546004850154600586015496860154600787015460088801546009890154600a8a0154600b8b0154600c8c0154600d8d0180549c9e6001600160a01b039c8d169e9b8d169d9c909a169b989a979860ff97881698969795969495939493909216929161057590613461565b80601f01602080910402602001604051908101604052809291908181526020018280546105a190613461565b80156105ee5780601f106105c3576101008083540402835291602001916105ee565b820191906000526020600020905b8154815290600101906020018083116105d157829003601f168201915b505050505090508e565b6007602052816000526040600020818154811061061457600080fd5b90600052602060002090600602016000915091505080600001549080600101805461063e90613461565b80601f016020809104026020016040519081016040528092919081815260200182805461066a90613461565b80156106b75780601f1061068c576101008083540402835291602001916106b7565b820191906000526020600020905b81548152906001019060200180831161069a57829003601f168201915b5050506002840154600385015460048601546005909601549495919460ff8083169550610100909204909116925087565b6106f0612794565b600555565b8060035481106107205760405162461bcd60e51b815260040161071790613495565b60405180910390fd5b60008281526006602052604090206001015482906001600160a01b0316331461075b5760405162461bcd60e51b8152600401610717906134c4565b6107636127ee565b61076b612834565b600083815260066020526040812090600782015460ff16600581111561079357610793612ece565b146107d85760405162461bcd60e51b8152602060048201526015602482015274115cd8dc9bddc8185b1c9958591e48199d5b991959605a1b6044820152606401610717565b80600a015443111561081e5760405162461bcd60e51b815260206004820152600f60248201526e111958591b1a5b99481c185cdcd959608a1b6044820152606401610717565b60048101546003820154610841916001600160a01b03909116903390309061288d565b60078101805460ff191660011790554260098201819055600482015460408051918252602082019290925285917f8dff3cf02c5b34f1bbcae6061488e20d55563d782e18f3af44cb099f1783b2fb910160405180910390a2506108a360018055565b505050565b6108b0612794565b6108b86128fe565b565b60608160035481106108de5760405162461bcd60e51b815260040161071790613495565b600083815260076020908152604080832080548251818502810185019093528083529193909284015b82821015610a1857838290600052602060002090600602016040518060e00160405290816000820154815260200160018201805461094490613461565b80601f016020809104026020016040519081016040528092919081815260200182805461097090613461565b80156109bd5780601f10610992576101008083540402835291602001916109bd565b820191906000526020600020905b8154815290600101906020018083116109a057829003601f168201915b50505091835250506002820154602080830191909152600383015460ff8082161515604085015261010090910416151560608301526004830154608083015260059092015460a0909101529082526001929092019101610907565b5050505091505b50919050565b826003548110610a475760405162461bcd60e51b815260040161071790613495565b60008481526006602052604090206001015484906001600160a01b0316331480610a8a57506000818152600660205260409020600201546001600160a01b031633145b610ad65760405162461bcd60e51b815260206004820152601c60248201527f4f6e6c7920657363726f7720706172746965732063616e2063616c6c000000006044820152606401610717565b6000858152600660205260409020600c81015460ff1615610b325760405162461bcd60e51b8152602060048201526016602482015275111a5cdc1d5d1948185b1c9958591e481c985a5cd95960521b6044820152606401610717565b6001600782015460ff166005811115610b4d57610b4d612ece565b1480610b7157506002600782015460ff166005811115610b6f57610b6f612ece565b145b610bbd5760405162461bcd60e51b815260206004820152601d60248201527f43616e6e6f74206469737075746520696e2074686973207374617475730000006044820152606401610717565b83610c035760405162461bcd60e51b8152602060048201526016602482015275526561736f6e2063616e6e6f7420626520656d70747960501b6044820152606401610717565b600c8101805460ff19166001179055600d8101610c2185878361355f565b50336001600160a01b0316867f9d956e00a78b28b7f3b6b25c60a4729355093de02cac8715ceb237725c0f5820878742604051610c609392919061361f565b60405180910390a3505050505050565b806003548110610c925760405162461bcd60e51b815260040161071790613495565b610c9a6127ee565b610ca2612834565b600082815260066020526040902060018101546001600160a01b0316331480610cd557506000546001600160a01b031633145b610d125760405162461bcd60e51b815260206004820152600e60248201526d139bdd08185d5d1a1bdc9a5e995960921b6044820152606401610717565b6001600782015460ff166005811115610d2d57610d2d612ece565b1480610d5157506002600782015460ff166005811115610d4f57610d4f612ece565b145b610d9d5760405162461bcd60e51b815260206004820152601e60248201527f43616e6e6f7420726566756e642066726f6d20746869732073746174757300006044820152606401610717565b61c4e081600a0154610daf919061366e565b4311610dfd5760405162461bcd60e51b815260206004820152601760248201527f446561646c696e65206e6f7420706173736564207965740000000000000000006044820152606401610717565b600081600501548260040154610e139190613687565b905060008111610e5a5760405162461bcd60e51b8152602060048201526012602482015271139bc8199d5b991cc81d1bc81c99599d5b9960721b6044820152606401610717565b6006820181905560078201805460ff1916600417905560018201546003830154610e91916001600160a01b03918216911683612950565b6001820154604080518381524260208201526001600160a01b039092169186917f45bb3ef8b8173904759bbe0a10364432a4346d86528334f1453cfe178c46b1d8910160405180910390a35050610ee760018055565b5050565b610ef3612794565b6108b86000612980565b6000816003548110610f215760405162461bcd60e51b815260040161071790613495565b60008381526006602081905260409091209081015460058201546004830154610f4a9190613687565b610f549190613687565b949350505050565b610fd3604080516101c081018252600080825260208201819052918101829052606081018290526080810182905260a0810182905260c081018290529060e0820190815260200160008152602001600081526020016000815260200160008019168152602001600015158152602001606081525090565b816003548110610ff55760405162461bcd60e51b815260040161071790613495565b60008381526006602081815260409283902083516101c0810185528154815260018201546001600160a01b03908116938201939093526002820154831694810194909452600381015490911660608401526004810154608084015260058082015460a08501529181015460c08401526007810154909160e084019160ff169081111561108357611083612ece565b600581111561109457611094612ece565b81526008820154602082015260098201546040820152600a8201546060820152600b8201546080820152600c82015460ff16151560a0820152600d8201805460c0909201916110e290613461565b80601f016020809104026020016040519081016040528092919081815260200182805461110e90613461565b801561115b5780601f106111305761010080835404028352916020019161115b565b820191906000526020600020905b81548152906001019060200180831161113e57829003601f168201915b505050505081525050915050919050565b6008602052816000526040600020818154811061118857600080fd5b90600052602060002001600091509150505481565b6111a5612794565b6108b86129d0565b8160035481106111cf5760405162461bcd60e51b815260040161071790613495565b60008381526006602052604090206001015483906001600160a01b0316331461120a5760405162461bcd60e51b8152600401610717906134c4565b6000848152600660205260409020600c0154849060ff16156112635760405162461bcd60e51b8152602060048201526012602482015271115cd8dc9bddc81a5cc8191a5cdc1d5d195960721b6044820152606401610717565b61126b6127ee565b611273612834565b6000858152600760205260409020805485106112cc5760405162461bcd60e51b8152602060048201526018602482015277135a5b195cdd1bdb9948191bd95cc81b9bdd08195e1a5cdd60421b6044820152606401610717565b60008186815481106112e0576112e061369a565b60009182526020909120600690910201600381015490915060ff166113475760405162461bcd60e51b815260206004820152601b60248201527f4d696c6573746f6e65206e6f7420636f6d706c657465642079657400000000006044820152606401610717565b6003810154610100900460ff161561139a5760405162461bcd60e51b8152602060048201526016602482015275135a5b195cdd1bdb9948185b1c9958591e481c185a5960521b6044820152606401610717565b60038101805461ff00191661010017905542600582015560028101546113c1908890612a0d565b50506113cc60018055565b5050505050565b6113db612794565b6103e88111156114265760405162461bcd60e51b815260206004820152601660248201527546656520746f6f206869676820286d6178203130252960501b6044820152606401610717565b600480549082905560408051828152602081018490527fd347e206f25a89b917fc9482f1a2d294d749baa4dc9bde7fb495ee11fe491643910160405180910390a15050565b60006114756127ee565b6001600160a01b0386166114cb5760405162461bcd60e51b815260206004820152601b60248201527f496e76616c69642062656e6566696369617279206164647265737300000000006044820152606401610717565b336001600160a01b038716036115235760405162461bcd60e51b815260206004820152601f60248201527f42656e65666963696172792063616e6e6f74206265206465706f7369746f72006044820152606401610717565b6001600160a01b0385166115715760405162461bcd60e51b8152602060048201526015602482015274496e76616c696420746f6b656e206164647265737360581b6044820152606401610717565b6001600160a01b03851660009081526009602052604090205460ff166115d15760405162461bcd60e51b8152602060048201526015602482015274151bdad95b881b9bdd081dda1a5d195b1a5cdd1959605a1b6044820152606401610717565b60055484101561161a5760405162461bcd60e51b8152602060048201526014602482015273416d6f756e742062656c6f77206d696e696d756d60601b6044820152606401610717565b438311801561163557506116316213c6804361366e565b8311155b6116745760405162461bcd60e51b815260206004820152601060248201526f496e76616c696420646561646c696e6560801b6044820152606401610717565b60006003549050604051806101c00160405280898152602001336001600160a01b03168152602001886001600160a01b03168152602001876001600160a01b031681526020018681526020016000815260200160008152602001600060058111156116e1576116e1612ece565b8152426020808301919091526000604080840182905260608085018a905260808086018a905260a08087018590528351808701855285815260c0978801528885526006808752948490208851815595880151600180880180546001600160a01b03199081166001600160a01b0394851617909155958a0151600289018054881691841691909117905593890151600388018054909616911617909355860151600485015590850151600580850191909155938501519183019190915560e084015160078301805493949193909260ff199091169184908111156117c6576117c6612ece565b021790555061010082015160088201556101208201516009820155610140820151600a820155610160820151600b820155610180820151600c8201805460ff19169115159190911790556101a0820151600d82019061182590826136b0565b5050336000908152600860209081526040808320805460018181018355918552838520018690556001600160a01b038c168452908320805491820181558352908220018390556003805492509061187b83613770565b9091555050604080516001600160a01b03898116825288166020820152908101869052606081018590523390899083907fa016eb82fb83658bc36e22901ec28091b58b4c972888ba22b75283ee721bc5c49060800160405180910390a4979650505050505050565b6118eb612794565b6118f3612834565b6001600160a01b0381166000908152600a60205260409020548061194f5760405162461bcd60e51b81526020600482015260136024820152724e6f206665657320746f20776974686472617760681b6044820152606401610717565b6001600160a01b0382166000908152600a602052604081205561198e61197d6000546001600160a01b031690565b6001600160a01b0384169083612950565b816001600160a01b03167fd116803f8b8538a601b6096e8d1196e3ce3ef43dec6dbbe4cd4e5c69dd171d8b826040516119c991815260200190565b60405180910390a2506119db60018055565b50565b6119e6612794565b6001600160a01b038216611a345760405162461bcd60e51b8152602060048201526015602482015274496e76616c696420746f6b656e206164647265737360581b6044820152606401610717565b6001600160a01b038216600081815260096020908152604091829020805460ff191685151590811790915591519182527fef81a9943b96c8df4ef243401c9bf5159146166211356898b52d382086168d92910160405180910390a25050565b836003548110611ab55760405162461bcd60e51b815260040161071790613495565b60008581526006602052604090206001015485906001600160a01b03163314611af05760405162461bcd60e51b8152600401610717906134c4565b600086815260066020526040812090600782015460ff166005811115611b1857611b18612ece565b1480611b3c57506001600782015460ff166005811115611b3a57611b3a612ece565b145b611b975760405162461bcd60e51b815260206004820152602660248201527f43616e6e6f7420637265617465206d696c6573746f6e6520696e20746869732060448201526573746174757360d01b6064820152608401610717565b60008411611bf75760405162461bcd60e51b815260206004820152602760248201527f4d696c6573746f6e6520616d6f756e74206d75737420626520677265617465726044820152660207468616e20360cc1b6064820152608401610717565b84611c445760405162461bcd60e51b815260206004820152601b60248201527f4465736372697074696f6e2063616e6e6f7420626520656d70747900000000006044820152606401610717565b60008781526007602052604081209085905b8254811015611ca257828181548110611c7157611c7161369a565b90600052602060002090600602016002015482611c8e919061366e565b915080611c9a81613770565b915050611c56565b508260040154811115611d055760405162461bcd60e51b815260206004820152602560248201527f546f74616c206d696c6573746f6e65206578636565647320657363726f7720616044820152641b5bdd5b9d60da1b6064820152608401610717565b81546040805160e08101825282815281516020601f8c018190048102820181019093528a8152859280830191908d908d9081908401838280828437600092018290525093855250505060208083018c905260408301829052606083018290526080830182905260a0909201819052835460018181018655948252908290208351600690920201908155908201519192909190820190611da490826136b0565b5060408281015160028301556060830151600383018054608086015115156101000261ff00199315159390931661ffff199091161791909117905560a0830151600483015560c0909201516005909101555181908b907f3d198c5d9c28f50bf234c9c1a9a84f7ed3a20d152833a06c844a8e897261abd290611e2b908d908d908d9061361f565b60405180910390a350505050505050505050565b816003548110611e615760405162461bcd60e51b815260040161071790613495565b60008381526006602052604090206001015483906001600160a01b03163314611e9c5760405162461bcd60e51b8152600401610717906134c4565b6000848152600660205260409020600c0154849060ff1615611ef55760405162461bcd60e51b8152602060048201526012602482015271115cd8dc9bddc81a5cc8191a5cdc1d5d195960721b6044820152606401610717565b611efd6127ee565b611f05612834565b611f0f8585612a0d565b6113cc60018055565b6001600160a01b0383166000908152600860209081526040808320805482518185028101850190935280835260609493830182828015611f7757602002820191906000526020600020905b815481526020019060010190808311611f63575b5050505050905080518410611f9c57505060408051600081526020810190915261206b565b6000611fa8848661366e565b90508151811115611fb7575080515b6000611fc38683613687565b67ffffffffffffffff811115611fdb57611fdb6134fb565b604051908082528060200260200182016040528015612004578160200160208202803683370190505b509050855b82811015612065578381815181106120235761202361369a565b60200260200101518288836120389190613687565b815181106120485761204861369a565b60209081029190910101528061205d81613770565b915050612009565b50925050505b9392505050565b8160035481106120945760405162461bcd60e51b815260040161071790613495565b61209c612794565b6120a4612834565b6000838152600660205260409020600c81015460ff166120fe5760405162461bcd60e51b81526020600482015260156024820152744e6f206469737075746520746f207265736f6c766560581b6044820152606401610717565b6001600782015460ff16600581111561211957612119612ece565b148061213d57506002600782015460ff16600581111561213b5761213b612ece565b145b6121895760405162461bcd60e51b815260206004820152601d60248201527f43616e6e6f74207265736f6c766520696e2074686973207374617475730000006044820152606401610717565b60008160050154826004015461219f9190613687565b9050600081116121ea5760405162461bcd60e51b81526020600482015260166024820152754e6f2066756e647320746f206469737472696275746560501b6044820152606401610717565b600c8201805460ff19169055604080516020810190915260008152600d83019061221490826136b0565b50600084600281111561222957612229612ece565b036122d057600482810154600584015560078301805460ff19166003179055546000906127109061225a9084613789565b61226491906137a0565b905060006122728284613687565b60038501546001600160a01b03166000908152600a60205260408120805492935084929091906122a390849061366e565b9091555050600284015460038501546122c9916001600160a01b03918216911683612950565b5050612430565b60018460028111156122e4576122e4612ece565b03612325576006820181905560078201805460ff1916600417905560018201546003830154612320916001600160a01b03918216911683612950565b612430565b600284600281111561233957612339612ece565b0361243057600061234b6002836137a0565b90506000612710600454836123609190613789565b61236a91906137a0565b905060006123788284613687565b90508285600501600082825461238e919061366e565b9091555061239e90508385613687565b600686015560078501805460ff191660039081179091558501546001600160a01b03166000908152600a6020526040812080548492906123df90849061366e565b909155505060028501546003860154612405916001600160a01b03918216911683612950565b60018501546006860154600387015461242c926001600160a01b0391821692911690612950565b5050505b847ff1ec8c5f40b1ecbe135bf063eabb3d0787f27bef26b6dcf944914a01d2de0b9e85426040516124629291906137c2565b60405180910390a250506108a360018055565b61247d612794565b6001600160a01b0381166124e25760405162461bcd60e51b815260206004820152602660248201527f4f776e61626c653a206e6577206f776e657220697320746865207a65726f206160448201526564647265737360d01b6064820152608401610717565b6119db81612980565b81600354811061250d5760405162461bcd60e51b815260040161071790613495565b60008381526006602052604090206002015483906001600160a01b031633146125785760405162461bcd60e51b815260206004820152601960248201527f4f6e6c792062656e65666963696172792063616e2063616c6c000000000000006044820152606401610717565b6000848152600760205260409020805484106125d15760405162461bcd60e51b8152602060048201526018602482015277135a5b195cdd1bdb9948191bd95cc81b9bdd08195e1a5cdd60421b6044820152606401610717565b60008185815481106125e5576125e561369a565b60009182526020909120600690910201600381015490915060ff161561264d5760405162461bcd60e51b815260206004820152601b60248201527f4d696c6573746f6e6520616c726561647920636f6d706c6574656400000000006044820152606401610717565b6003810154610100900460ff16156126a05760405162461bcd60e51b8152602060048201526016602482015275135a5b195cdd1bdb9948185b1c9958591e481c185a5960521b6044820152606401610717565b60038101805460ff191660011790554260048201819055604051869188917fd4dbda378623f00b72ef135b4579b7ba064c49645217eb107d663831efac635891610c609190815260200190565b60008160035481106127115760405162461bcd60e51b815260040161071790613495565b60008381526006602052604090206001600782015460ff16600581111561273a5761273a612ece565b148061275e57506002600782015460ff16600581111561275c5761275c612ece565b145b801561277a575061c4e081600a0154612777919061366e565b43115b8015610f5457506005810154600490910154119392505050565b6000546001600160a01b031633146108b85760405162461bcd60e51b815260206004820181905260248201527f4f776e61626c653a2063616c6c6572206973206e6f7420746865206f776e65726044820152606401610717565b60025460ff16156108b85760405162461bcd60e51b815260206004820152601060248201526f14185d5cd8589b194e881c185d5cd95960821b6044820152606401610717565b6002600154036128865760405162461bcd60e51b815260206004820152601f60248201527f5265656e7472616e637947756172643a207265656e7472616e742063616c6c006044820152606401610717565b6002600155565b6040516001600160a01b03808516602483015283166044820152606481018290526128f89085906323b872dd60e01b906084015b60408051601f198184030181529190526020810180516001600160e01b03166001600160e01b031990931692909217909152612c74565b50505050565b612906612d49565b6002805460ff191690557f5db9ee0a495bf2e6ff9c91a7834c1ba4fdd244a5e8aa4e537bd38aeae4b073aa335b6040516001600160a01b03909116815260200160405180910390a1565b6040516001600160a01b0383166024820152604481018290526108a390849063a9059cbb60e01b906064016128c1565b600080546001600160a01b038381166001600160a01b0319831681178455604051919092169283917f8be0079c531659141344cd1fd0a4f28419497f9722a3daafe3b4186f6b6457e09190a35050565b6129d86127ee565b6002805460ff191660011790557f62e78cea01bee320cd4e420270b5ea74000d11b0c9f74754ebdbfc544b05a2586129333390565b60008281526006602052604090206001600782015460ff166005811115612a3657612a36612ece565b1480612a5a57506002600782015460ff166005811115612a5857612a58612ece565b145b612a9e5760405162461bcd60e51b8152602060048201526015602482015274496e76616c696420657363726f772073746174757360581b6044820152606401610717565b60008211612aee5760405162461bcd60e51b815260206004820152601d60248201527f416d6f756e74206d7573742062652067726561746572207468616e20300000006044820152606401610717565b600081600501548260040154612b049190613687565b905080831115612b565760405162461bcd60e51b815260206004820181905260248201527f416d6f756e7420657863656564732072656d61696e696e672062616c616e63656044820152606401610717565b600061271060045485612b699190613789565b612b7391906137a0565b90506000612b818286613687565b905084846005016000828254612b97919061366e565b909155505060038401546001600160a01b03166000908152600a602052604081208054849290612bc890849061366e565b90915550506004840154600585015403612bf05760078401805460ff19166003179055612c00565b60078401805460ff191660021790555b60028401546003850154612c21916001600160a01b03918216911683612950565b6002840154604080518381526020810185905242918101919091526001600160a01b039091169087907fc96bdfee3bb005d825a8373fa5aa2ccbf1c170276c7e95ba59858f12cb8aa31190606001610c60565b6000612cc9826040518060400160405280602081526020017f5361666545524332303a206c6f772d6c6576656c2063616c6c206661696c6564815250856001600160a01b0316612d929092919063ffffffff16565b9050805160001480612cea575080806020019051810190612cea91906137e0565b6108a35760405162461bcd60e51b815260206004820152602a60248201527f5361666545524332303a204552433230206f7065726174696f6e20646964206e6044820152691bdd081cdd58d8d9595960b21b6064820152608401610717565b60025460ff166108b85760405162461bcd60e51b815260206004820152601460248201527314185d5cd8589b194e881b9bdd081c185d5cd95960621b6044820152606401610717565b6060610f54848460008585600080866001600160a01b03168587604051612db991906137fd565b60006040518083038185875af1925050503d8060008114612df6576040519150601f19603f3d011682016040523d82523d6000602084013e612dfb565b606091505b5091509150612e0c87838387612e17565b979650505050505050565b60608315612e86578251600003612e7f576001600160a01b0385163b612e7f5760405162461bcd60e51b815260206004820152601d60248201527f416464726573733a2063616c6c20746f206e6f6e2d636f6e74726163740000006044820152606401610717565b5081610f54565b610f548383815115612e9b5781518083602001fd5b8060405162461bcd60e51b81526004016107179190613819565b600060208284031215612ec757600080fd5b5035919050565b634e487b7160e01b600052602160045260246000fd5b60068110612ef457612ef4612ece565b9052565b60005b83811015612f13578181015183820152602001612efb565b50506000910152565b60008151808452612f34816020860160208601612ef8565b601f01601f19169290920160200192915050565b8e81526001600160a01b038e811660208301528d811660408301528c1660608201528a60808201528960a08201528860c0820152612f8960e0820189612ee4565b86610100820152856101208201528461014082015283610160820152612fb461018082018415159052565b6101c06101a08201526000612fcd6101c0830184612f1c565b90509f9e505050505050505050505050505050565b60008060408385031215612ff557600080fd5b50508035926020909101359150565b87815260e06020820152600061301d60e0830189612f1c565b6040830197909752509315156060850152911515608084015260a083015260c09091015292915050565b80356001600160a01b038116811461305e57600080fd5b919050565b60006020828403121561307557600080fd5b61206b82613047565b60006020808301818452808551808352604092508286019150828160051b87010184880160005b8381101561311d57603f19898403018552815160e08151855288820151818a8701526130d382870182612f1c565b838a0151878b015260608085015115159088015260808085015115159088015260a0808501519088015260c0938401519390960192909252505093860193908601906001016130a5565b509098975050505050505050565b60008083601f84011261313d57600080fd5b50813567ffffffffffffffff81111561315557600080fd5b60208301915083602082850101111561316d57600080fd5b9250929050565b60008060006040848603121561318957600080fd5b83359250602084013567ffffffffffffffff8111156131a757600080fd5b6131b38682870161312b565b9497909650939450505050565b6020815281516020820152600060208301516131e760408401826001600160a01b03169052565b5060408301516001600160a01b03811660608401525060608301516001600160a01b038116608084015250608083015160a083015260a083015160c083015260c083015160e083015260e083015161010061324481850183612ee4565b8401516101208481019190915284015161014080850191909152840151610160808501919091528401516101808085019190915284015190506101a061328d8185018315159052565b8401516101c0848101529050610f546101e0840182612f1c565b600080604083850312156132ba57600080fd5b6132c383613047565b946020939093013593505050565b60008060008060008060c087890312156132ea57600080fd5b863595506132fa60208801613047565b945061330860408801613047565b9350606087013592506080870135915060a087013590509295509295509295565b80151581146119db57600080fd5b6000806040838503121561334a57600080fd5b61335383613047565b9150602083013561336381613329565b809150509250929050565b6000806000806060858703121561338457600080fd5b84359350602085013567ffffffffffffffff8111156133a257600080fd5b6133ae8782880161312b565b9598909750949560400135949350505050565b6000806000606084860312156133d657600080fd5b6133df84613047565b95602085013595506040909401359392505050565b6020808252825182820181905260009190848201906040850190845b8181101561342c57835183529284019291840191600101613410565b50909695505050505050565b6000806040838503121561344b57600080fd5b8235915060208301356003811061336357600080fd5b600181811c9082168061347557607f821691505b602082108103610a1f57634e487b7160e01b600052602260045260246000fd5b602080825260159082015274115cd8dc9bddc8191bd95cc81b9bdd08195e1a5cdd605a1b604082015260600190565b60208082526017908201527f4f6e6c79206465706f7369746f722063616e2063616c6c000000000000000000604082015260600190565b634e487b7160e01b600052604160045260246000fd5b601f8211156108a357600081815260208120601f850160051c810160208610156135385750805b601f850160051c820191505b8181101561355757828155600101613544565b505050505050565b67ffffffffffffffff831115613577576135776134fb565b61358b836135858354613461565b83613511565b6000601f8411600181146135bf57600085156135a75750838201355b600019600387901b1c1916600186901b1783556113cc565b600083815260209020601f19861690835b828110156135f057868501358255602094850194600190920191016135d0565b508682101561360d5760001960f88860031b161c19848701351681555b505060018560011b0183555050505050565b604081528260408201528284606083013760006060848301015260006060601f19601f8601168301019050826020830152949350505050565b634e487b7160e01b600052601160045260246000fd5b8082018082111561368157613681613658565b92915050565b8181038181111561368157613681613658565b634e487b7160e01b600052603260045260246000fd5b815167ffffffffffffffff8111156136ca576136ca6134fb565b6136de816136d88454613461565b84613511565b602080601f83116001811461371357600084156136fb5750858301515b600019600386901b1c1916600185901b178555613557565b600085815260208120601f198616915b8281101561374257888601518255948401946001909101908401613723565b50858210156137605787850151600019600388901b60f8161c191681555b5050505050600190811b01905550565b60006001820161378257613782613658565b5060010190565b808202811582820484141761368157613681613658565b6000826137bd57634e487b7160e01b600052601260045260246000fd5b500490565b60408101600384106137d6576137d6612ece565b9281526020015290565b6000602082840312156137f257600080fd5b815161206b81613329565b6000825161380f818460208701612ef8565b9190910192915050565b60208152600061206b6020830184612f1c56fea26469706673582212201dbefe6a751b57303f6ea38737582bb9dc6fdfbdd27e40fd817d20e32ebffce864736f6c63430008130033","linkReferences":{}},"methodIdentifiers":{"DISPUTE_GRACE_PERIOD()":"4a690345","FEE_DENOMINATOR()":"d73792a9","MAX_DEADLINE()":"6f0e530f","allowedTokens(address)":"e744092e","canRefund(uint256)":"fc8cc92b","collectedFees(address)":"1cead9a7","completeMilestone(uint256,uint256)":"f326206b","createEscrow(uint256,address,address,uint256,uint256,bytes32)":"c029d0a8","createMilestone(uint256,string,uint256)":"da13b0d3","depositFunds(uint256)":"3b76594d","escrowCounter()":"c7ceafea","escrowMilestones(uint256,uint256)":"11632e4e","escrows(uint256)":"012f52ee","getEscrow(uint256)":"7d19e596","getMilestones(uint256)":"42c549c0","getRemainingBalance(uint256)":"78e94dd2","getUserEscrows(address,uint256,uint256)":"e44774fa","minEscrowAmount()":"3b09dba6","owner()":"8da5cb5b","pause()":"8456cb59","paused()":"5c975abb","platformFeeRate()":"eeca08f0","raiseDispute(uint256,string)":"5aef573c","refundDepositor(uint256)":"5ee1ea6f","releaseFunds(uint256,uint256)":"df7843ae","releaseMilestonePayment(uint256,uint256)":"8c936e65","renounceOwnership()":"715018a6","resolveDispute(uint256,uint8)":"e55e4211","setMinEscrowAmount(uint256)":"2df5c286","setPlatformFeeRate(uint256)":"927fef2e","setTokenWhitelist(address,bool)":"c9bcc97e","transferOwnership(address)":"f2fde38b","unpause()":"3f4ba83a","userEscrows(address,uint256)":"7f944dd0","withdrawPlatformFee(address)":"c5176941"},"id":0}